{
	"contracts/Exercise4.sol": {
		"FunctionOverloading": {
			"abi": [
				{
					"inputs": [
						{
							"internalType": "uint256",
							"name": "wallet",
							"type": "uint256"
						}
					],
					"name": "x",
					"outputs": [],
					"stateMutability": "nonpayable",
					"type": "function"
				},
				{
					"inputs": [
						{
							"internalType": "uint256",
							"name": "lightSwitch",
							"type": "uint256"
						},
						{
							"internalType": "uint256",
							"name": "wallet",
							"type": "uint256"
						}
					],
					"name": "x",
					"outputs": [],
					"stateMutability": "nonpayable",
					"type": "function"
				}
			],
			"devdoc": {
				"kind": "dev",
				"methods": {},
				"version": 1
			},
			"evm": {
				"assembly": "    /* \"contracts/Exercise4.sol\":386:531  contract FunctionOverloading{... */\n  mstore(0x40, 0x80)\n  callvalue\n  dup1\n  iszero\n  tag_1\n  jumpi\n  0x00\n  dup1\n  revert\ntag_1:\n  pop\n  dataSize(sub_0)\n  dup1\n  dataOffset(sub_0)\n  0x00\n  codecopy\n  0x00\n  return\nstop\n\nsub_0: assembly {\n        /* \"contracts/Exercise4.sol\":386:531  contract FunctionOverloading{... */\n      mstore(0x40, 0x80)\n      callvalue\n      dup1\n      iszero\n      tag_1\n      jumpi\n      0x00\n      dup1\n      revert\n    tag_1:\n      pop\n      jumpi(tag_2, lt(calldatasize, 0x04))\n      shr(0xe0, calldataload(0x00))\n      dup1\n      0x3f4263ef\n      eq\n      tag_3\n      jumpi\n      dup1\n      0x97842cce\n      eq\n      tag_4\n      jumpi\n    tag_2:\n      0x00\n      dup1\n      revert\n        /* \"contracts/Exercise4.sol\":489:528  function x(uint wallet)public{... */\n    tag_3:\n      tag_5\n      0x04\n      dup1\n      calldatasize\n      sub\n      dup2\n      add\n      swap1\n      tag_6\n      swap2\n      swap1\n      tag_7\n      jump\t// in\n    tag_6:\n      tag_8\n      jump\t// in\n    tag_5:\n      stop\n        /* \"contracts/Exercise4.sol\":423:481  function x(uint lightSwitch, uint wallet) public{... */\n    tag_4:\n      tag_9\n      0x04\n      dup1\n      calldatasize\n      sub\n      dup2\n      add\n      swap1\n      tag_10\n      swap2\n      swap1\n      tag_11\n      jump\t// in\n    tag_10:\n      tag_12\n      jump\t// in\n    tag_9:\n      stop\n        /* \"contracts/Exercise4.sol\":489:528  function x(uint wallet)public{... */\n    tag_8:\n      pop\n      jump\t// out\n        /* \"contracts/Exercise4.sol\":423:481  function x(uint lightSwitch, uint wallet) public{... */\n    tag_12:\n      pop\n      pop\n      jump\t// out\n        /* \"#utility.yul\":88:205   */\n    tag_16:\n        /* \"#utility.yul\":197:198   */\n      0x00\n        /* \"#utility.yul\":194:195   */\n      dup1\n        /* \"#utility.yul\":187:199   */\n      revert\n        /* \"#utility.yul\":334:411   */\n    tag_18:\n        /* \"#utility.yul\":371:378   */\n      0x00\n        /* \"#utility.yul\":400:405   */\n      dup2\n        /* \"#utility.yul\":389:405   */\n      swap1\n      pop\n        /* \"#utility.yul\":334:411   */\n      swap2\n      swap1\n      pop\n      jump\t// out\n        /* \"#utility.yul\":417:539   */\n    tag_19:\n        /* \"#utility.yul\":490:514   */\n      tag_27\n        /* \"#utility.yul\":508:513   */\n      dup2\n        /* \"#utility.yul\":490:514   */\n      tag_18\n      jump\t// in\n    tag_27:\n        /* \"#utility.yul\":483:488   */\n      dup2\n        /* \"#utility.yul\":480:515   */\n      eq\n        /* \"#utility.yul\":470:533   */\n      tag_28\n      jumpi\n        /* \"#utility.yul\":529:530   */\n      0x00\n        /* \"#utility.yul\":526:527   */\n      dup1\n        /* \"#utility.yul\":519:531   */\n      revert\n        /* \"#utility.yul\":470:533   */\n    tag_28:\n        /* \"#utility.yul\":417:539   */\n      pop\n      jump\t// out\n        /* \"#utility.yul\":545:684   */\n    tag_20:\n        /* \"#utility.yul\":591:596   */\n      0x00\n        /* \"#utility.yul\":629:635   */\n      dup2\n        /* \"#utility.yul\":616:636   */\n      calldataload\n        /* \"#utility.yul\":607:636   */\n      swap1\n      pop\n        /* \"#utility.yul\":645:678   */\n      tag_30\n        /* \"#utility.yul\":672:677   */\n      dup2\n        /* \"#utility.yul\":645:678   */\n      tag_19\n      jump\t// in\n    tag_30:\n        /* \"#utility.yul\":545:684   */\n      swap3\n      swap2\n      pop\n      pop\n      jump\t// out\n        /* \"#utility.yul\":690:1019   */\n    tag_7:\n        /* \"#utility.yul\":749:755   */\n      0x00\n        /* \"#utility.yul\":798:800   */\n      0x20\n        /* \"#utility.yul\":786:795   */\n      dup3\n        /* \"#utility.yul\":777:784   */\n      dup5\n        /* \"#utility.yul\":773:796   */\n      sub\n        /* \"#utility.yul\":769:801   */\n      slt\n        /* \"#utility.yul\":766:885   */\n      iszero\n      tag_32\n      jumpi\n        /* \"#utility.yul\":804:883   */\n      tag_33\n      tag_16\n      jump\t// in\n    tag_33:\n        /* \"#utility.yul\":766:885   */\n    tag_32:\n        /* \"#utility.yul\":924:925   */\n      0x00\n        /* \"#utility.yul\":949:1002   */\n      tag_34\n        /* \"#utility.yul\":994:1001   */\n      dup5\n        /* \"#utility.yul\":985:991   */\n      dup3\n        /* \"#utility.yul\":974:983   */\n      dup6\n        /* \"#utility.yul\":970:992   */\n      add\n        /* \"#utility.yul\":949:1002   */\n      tag_20\n      jump\t// in\n    tag_34:\n        /* \"#utility.yul\":939:1002   */\n      swap2\n      pop\n        /* \"#utility.yul\":895:1012   */\n      pop\n        /* \"#utility.yul\":690:1019   */\n      swap3\n      swap2\n      pop\n      pop\n      jump\t// out\n        /* \"#utility.yul\":1025:1499   */\n    tag_11:\n        /* \"#utility.yul\":1093:1099   */\n      0x00\n        /* \"#utility.yul\":1101:1107   */\n      dup1\n        /* \"#utility.yul\":1150:1152   */\n      0x40\n        /* \"#utility.yul\":1138:1147   */\n      dup4\n        /* \"#utility.yul\":1129:1136   */\n      dup6\n        /* \"#utility.yul\":1125:1148   */\n      sub\n        /* \"#utility.yul\":1121:1153   */\n      slt\n        /* \"#utility.yul\":1118:1237   */\n      iszero\n      tag_36\n      jumpi\n        /* \"#utility.yul\":1156:1235   */\n      tag_37\n      tag_16\n      jump\t// in\n    tag_37:\n        /* \"#utility.yul\":1118:1237   */\n    tag_36:\n        /* \"#utility.yul\":1276:1277   */\n      0x00\n        /* \"#utility.yul\":1301:1354   */\n      tag_38\n        /* \"#utility.yul\":1346:1353   */\n      dup6\n        /* \"#utility.yul\":1337:1343   */\n      dup3\n        /* \"#utility.yul\":1326:1335   */\n      dup7\n        /* \"#utility.yul\":1322:1344   */\n      add\n        /* \"#utility.yul\":1301:1354   */\n      tag_20\n      jump\t// in\n    tag_38:\n        /* \"#utility.yul\":1291:1354   */\n      swap3\n      pop\n        /* \"#utility.yul\":1247:1364   */\n      pop\n        /* \"#utility.yul\":1403:1405   */\n      0x20\n        /* \"#utility.yul\":1429:1482   */\n      tag_39\n        /* \"#utility.yul\":1474:1481   */\n      dup6\n        /* \"#utility.yul\":1465:1471   */\n      dup3\n        /* \"#utility.yul\":1454:1463   */\n      dup7\n        /* \"#utility.yul\":1450:1472   */\n      add\n        /* \"#utility.yul\":1429:1482   */\n      tag_20\n      jump\t// in\n    tag_39:\n        /* \"#utility.yul\":1419:1482   */\n      swap2\n      pop\n        /* \"#utility.yul\":1374:1492   */\n      pop\n        /* \"#utility.yul\":1025:1499   */\n      swap3\n      pop\n      swap3\n      swap1\n      pop\n      jump\t// out\n\n    auxdata: 0xa26469706673582212205ef81fc61635f6036e6ccfdb656c6ece8b76f3662319abfe5e5cb536748c193264736f6c634300081a0033\n}\n",
				"bytecode": {
					"linkReferences": {},
					"object": "6080604052348015600e575f80fd5b5061014d8061001c5f395ff3fe608060405234801561000f575f80fd5b5060043610610034575f3560e01c80633f4263ef1461003857806397842cce14610054575b5f80fd5b610052600480360381019061004d91906100ae565b610070565b005b61006e600480360381019061006991906100d9565b610073565b005b50565b5050565b5f80fd5b5f819050919050565b61008d8161007b565b8114610097575f80fd5b50565b5f813590506100a881610084565b92915050565b5f602082840312156100c3576100c2610077565b5b5f6100d08482850161009a565b91505092915050565b5f80604083850312156100ef576100ee610077565b5b5f6100fc8582860161009a565b925050602061010d8582860161009a565b915050925092905056fea26469706673582212205ef81fc61635f6036e6ccfdb656c6ece8b76f3662319abfe5e5cb536748c193264736f6c634300081a0033",
					"opcodes": "PUSH1 0x80 PUSH1 0x40 MSTORE CALLVALUE DUP1 ISZERO PUSH1 0xE JUMPI PUSH0 DUP1 REVERT JUMPDEST POP PUSH2 0x14D DUP1 PUSH2 0x1C PUSH0 CODECOPY PUSH0 RETURN INVALID PUSH1 0x80 PUSH1 0x40 MSTORE CALLVALUE DUP1 ISZERO PUSH2 0xF JUMPI PUSH0 DUP1 REVERT JUMPDEST POP PUSH1 0x4 CALLDATASIZE LT PUSH2 0x34 JUMPI PUSH0 CALLDATALOAD PUSH1 0xE0 SHR DUP1 PUSH4 0x3F4263EF EQ PUSH2 0x38 JUMPI DUP1 PUSH4 0x97842CCE EQ PUSH2 0x54 JUMPI JUMPDEST PUSH0 DUP1 REVERT JUMPDEST PUSH2 0x52 PUSH1 0x4 DUP1 CALLDATASIZE SUB DUP2 ADD SWAP1 PUSH2 0x4D SWAP2 SWAP1 PUSH2 0xAE JUMP JUMPDEST PUSH2 0x70 JUMP JUMPDEST STOP JUMPDEST PUSH2 0x6E PUSH1 0x4 DUP1 CALLDATASIZE SUB DUP2 ADD SWAP1 PUSH2 0x69 SWAP2 SWAP1 PUSH2 0xD9 JUMP JUMPDEST PUSH2 0x73 JUMP JUMPDEST STOP JUMPDEST POP JUMP JUMPDEST POP POP JUMP JUMPDEST PUSH0 DUP1 REVERT JUMPDEST PUSH0 DUP2 SWAP1 POP SWAP2 SWAP1 POP JUMP JUMPDEST PUSH2 0x8D DUP2 PUSH2 0x7B JUMP JUMPDEST DUP2 EQ PUSH2 0x97 JUMPI PUSH0 DUP1 REVERT JUMPDEST POP JUMP JUMPDEST PUSH0 DUP2 CALLDATALOAD SWAP1 POP PUSH2 0xA8 DUP2 PUSH2 0x84 JUMP JUMPDEST SWAP3 SWAP2 POP POP JUMP JUMPDEST PUSH0 PUSH1 0x20 DUP3 DUP5 SUB SLT ISZERO PUSH2 0xC3 JUMPI PUSH2 0xC2 PUSH2 0x77 JUMP JUMPDEST JUMPDEST PUSH0 PUSH2 0xD0 DUP5 DUP3 DUP6 ADD PUSH2 0x9A JUMP JUMPDEST SWAP2 POP POP SWAP3 SWAP2 POP POP JUMP JUMPDEST PUSH0 DUP1 PUSH1 0x40 DUP4 DUP6 SUB SLT ISZERO PUSH2 0xEF JUMPI PUSH2 0xEE PUSH2 0x77 JUMP JUMPDEST JUMPDEST PUSH0 PUSH2 0xFC DUP6 DUP3 DUP7 ADD PUSH2 0x9A JUMP JUMPDEST SWAP3 POP POP PUSH1 0x20 PUSH2 0x10D DUP6 DUP3 DUP7 ADD PUSH2 0x9A JUMP JUMPDEST SWAP2 POP POP SWAP3 POP SWAP3 SWAP1 POP JUMP INVALID LOG2 PUSH5 0x6970667358 0x22 SLT KECCAK256 MCOPY 0xF8 0x1F 0xC6 AND CALLDATALOAD 0xF6 SUB PUSH15 0x6CCFDB656C6ECE8B76F3662319ABFE MCOPY TLOAD 0xB5 CALLDATASIZE PUSH21 0x8C193264736F6C634300081A003300000000000000 "
				},
				"gasEstimates": {
					"creation": {
						"codeDepositCost": "66600",
						"executionCost": "115",
						"totalCost": "66715"
					},
					"external": {
						"x(uint256)": "379",
						"x(uint256,uint256)": "infinite"
					}
				},
				"methodIdentifiers": {
					"x(uint256)": "3f4263ef",
					"x(uint256,uint256)": "97842cce"
				}
			},
			"storageLayout": {
				"storage": [],
				"types": null
			},
			"userdoc": {
				"kind": "user",
				"methods": {},
				"version": 1
			}
		}
	}
}