{
	"contracts/Exercise2.sol": {
		"MyContract": {
			"abi": [
				{
					"inputs": [],
					"name": "getNewValue",
					"outputs": [
						{
							"internalType": "uint256",
							"name": "",
							"type": "uint256"
						}
					],
					"stateMutability": "pure",
					"type": "function"
				},
				{
					"inputs": [],
					"name": "getValue",
					"outputs": [
						{
							"internalType": "uint256",
							"name": "",
							"type": "uint256"
						}
					],
					"stateMutability": "view",
					"type": "function"
				},
				{
					"inputs": [],
					"name": "multiply",
					"outputs": [
						{
							"internalType": "uint256",
							"name": "",
							"type": "uint256"
						}
					],
					"stateMutability": "pure",
					"type": "function"
				},
				{
					"inputs": [
						{
							"internalType": "uint256",
							"name": "_value",
							"type": "uint256"
						}
					],
					"name": "setValue",
					"outputs": [],
					"stateMutability": "nonpayable",
					"type": "function"
				},
				{
					"inputs": [],
					"name": "valuePlusThree",
					"outputs": [
						{
							"internalType": "uint256",
							"name": "",
							"type": "uint256"
						}
					],
					"stateMutability": "view",
					"type": "function"
				}
			],
			"devdoc": {
				"kind": "dev",
				"methods": {},
				"version": 1
			},
			"evm": {
				"assembly": "    /* \"contracts/Exercise2.sol\":560:1287  contract MyContract{... */\n  mstore(0x40, 0x80)\n  callvalue\n  dup1\n  iszero\n  tag_1\n  jumpi\n  0x00\n  dup1\n  revert\ntag_1:\n  pop\n  dataSize(sub_0)\n  dup1\n  dataOffset(sub_0)\n  0x00\n  codecopy\n  0x00\n  return\nstop\n\nsub_0: assembly {\n        /* \"contracts/Exercise2.sol\":560:1287  contract MyContract{... */\n      mstore(0x40, 0x80)\n      callvalue\n      dup1\n      iszero\n      tag_1\n      jumpi\n      0x00\n      dup1\n      revert\n    tag_1:\n      pop\n      jumpi(tag_2, lt(calldatasize, 0x04))\n      shr(0xe0, calldataload(0x00))\n      dup1\n      0x20965255\n      eq\n      tag_3\n      jumpi\n      dup1\n      0x54fee644\n      eq\n      tag_4\n      jumpi\n      dup1\n      0x55241077\n      eq\n      tag_5\n      jumpi\n      dup1\n      0x98b10823\n      eq\n      tag_6\n      jumpi\n      dup1\n      0xf3593cd0\n      eq\n      tag_7\n      jumpi\n    tag_2:\n      0x00\n      dup1\n      revert\n        /* \"contracts/Exercise2.sol\":947:1069  function getValue() external view returns(uint){... */\n    tag_3:\n      tag_8\n      tag_9\n      jump\t// in\n    tag_8:\n      mload(0x40)\n      tag_10\n      swap2\n      swap1\n      tag_11\n      jump\t// in\n    tag_10:\n      mload(0x40)\n      dup1\n      swap2\n      sub\n      swap1\n      return\n        /* \"contracts/Exercise2.sol\":1075:1165  function getNewValue() external pure returns(uint) {... */\n    tag_4:\n      tag_12\n      tag_13\n      jump\t// in\n    tag_12:\n      mload(0x40)\n      tag_14\n      swap2\n      swap1\n      tag_11\n      jump\t// in\n    tag_14:\n      mload(0x40)\n      dup1\n      swap2\n      sub\n      swap1\n      return\n        /* \"contracts/Exercise2.sol\":1212:1284  function setValue(uint _value)external {... */\n    tag_5:\n      tag_15\n      0x04\n      dup1\n      calldatasize\n      sub\n      dup2\n      add\n      swap1\n      tag_16\n      swap2\n      swap1\n      tag_17\n      jump\t// in\n    tag_16:\n      tag_18\n      jump\t// in\n    tag_15:\n      stop\n        /* \"contracts/Exercise2.sol\":689:779  function valuePlusThree() external view returns(uint){... */\n    tag_6:\n      tag_19\n      tag_20\n      jump\t// in\n    tag_19:\n      mload(0x40)\n      tag_21\n      swap2\n      swap1\n      tag_11\n      jump\t// in\n    tag_21:\n      mload(0x40)\n      dup1\n      swap2\n      sub\n      swap1\n      return\n        /* \"contracts/Exercise2.sol\":605:681  function multiply() external pure returns(uint){... */\n    tag_7:\n      tag_22\n      tag_23\n      jump\t// in\n    tag_22:\n      mload(0x40)\n      tag_24\n      swap2\n      swap1\n      tag_11\n      jump\t// in\n    tag_24:\n      mload(0x40)\n      dup1\n      swap2\n      sub\n      swap1\n      return\n        /* \"contracts/Exercise2.sol\":947:1069  function getValue() external view returns(uint){... */\n    tag_9:\n        /* \"contracts/Exercise2.sol\":989:993  uint */\n      0x00\n        /* \"contracts/Exercise2.sol\":1054:1059  value */\n      dup1\n      sload\n        /* \"contracts/Exercise2.sol\":1047:1059  return value */\n      swap1\n      pop\n        /* \"contracts/Exercise2.sol\":947:1069  function getValue() external view returns(uint){... */\n      swap1\n      jump\t// out\n        /* \"contracts/Exercise2.sol\":1075:1165  function getNewValue() external pure returns(uint) {... */\n    tag_13:\n        /* \"contracts/Exercise2.sol\":1120:1124  uint */\n      0x00\n        /* \"contracts/Exercise2.sol\":1154:1157  3+3 */\n      0x06\n        /* \"contracts/Exercise2.sol\":1147:1157  return 3+3 */\n      swap1\n      pop\n        /* \"contracts/Exercise2.sol\":1075:1165  function getNewValue() external pure returns(uint) {... */\n      swap1\n      jump\t// out\n        /* \"contracts/Exercise2.sol\":1212:1284  function setValue(uint _value)external {... */\n    tag_18:\n        /* \"contracts/Exercise2.sol\":1270:1276  _value */\n      dup1\n        /* \"contracts/Exercise2.sol\":1262:1267  value */\n      0x00\n        /* \"contracts/Exercise2.sol\":1262:1276  value = _value */\n      dup2\n      swap1\n      sstore\n      pop\n        /* \"contracts/Exercise2.sol\":1212:1284  function setValue(uint _value)external {... */\n      pop\n      jump\t// out\n        /* \"contracts/Exercise2.sol\":689:779  function valuePlusThree() external view returns(uint){... */\n    tag_20:\n        /* \"contracts/Exercise2.sol\":737:741  uint */\n      0x00\n        /* \"contracts/Exercise2.sol\":768:769  3 */\n      0x03\n        /* \"contracts/Exercise2.sol\":760:765  value */\n      sload(0x00)\n        /* \"contracts/Exercise2.sol\":760:769  value + 3 */\n      tag_29\n      swap2\n      swap1\n      tag_30\n      jump\t// in\n    tag_29:\n        /* \"contracts/Exercise2.sol\":753:769  return value + 3 */\n      swap1\n      pop\n        /* \"contracts/Exercise2.sol\":689:779  function valuePlusThree() external view returns(uint){... */\n      swap1\n      jump\t// out\n        /* \"contracts/Exercise2.sol\":605:681  function multiply() external pure returns(uint){... */\n    tag_23:\n        /* \"contracts/Exercise2.sol\":647:651  uint */\n      0x00\n        /* \"contracts/Exercise2.sol\":670:673  3*7 */\n      0x15\n        /* \"contracts/Exercise2.sol\":663:673  return 3*7 */\n      swap1\n      pop\n        /* \"contracts/Exercise2.sol\":605:681  function multiply() external pure returns(uint){... */\n      swap1\n      jump\t// out\n        /* \"#utility.yul\":7:84   */\n    tag_32:\n        /* \"#utility.yul\":44:51   */\n      0x00\n        /* \"#utility.yul\":73:78   */\n      dup2\n        /* \"#utility.yul\":62:78   */\n      swap1\n      pop\n        /* \"#utility.yul\":7:84   */\n      swap2\n      swap1\n      pop\n      jump\t// out\n        /* \"#utility.yul\":90:208   */\n    tag_33:\n        /* \"#utility.yul\":177:201   */\n      tag_43\n        /* \"#utility.yul\":195:200   */\n      dup2\n        /* \"#utility.yul\":177:201   */\n      tag_32\n      jump\t// in\n    tag_43:\n        /* \"#utility.yul\":172:175   */\n      dup3\n        /* \"#utility.yul\":165:202   */\n      mstore\n        /* \"#utility.yul\":90:208   */\n      pop\n      pop\n      jump\t// out\n        /* \"#utility.yul\":214:436   */\n    tag_11:\n        /* \"#utility.yul\":307:311   */\n      0x00\n        /* \"#utility.yul\":345:347   */\n      0x20\n        /* \"#utility.yul\":334:343   */\n      dup3\n        /* \"#utility.yul\":330:348   */\n      add\n        /* \"#utility.yul\":322:348   */\n      swap1\n      pop\n        /* \"#utility.yul\":358:429   */\n      tag_45\n        /* \"#utility.yul\":426:427   */\n      0x00\n        /* \"#utility.yul\":415:424   */\n      dup4\n        /* \"#utility.yul\":411:428   */\n      add\n        /* \"#utility.yul\":402:408   */\n      dup5\n        /* \"#utility.yul\":358:429   */\n      tag_33\n      jump\t// in\n    tag_45:\n        /* \"#utility.yul\":214:436   */\n      swap3\n      swap2\n      pop\n      pop\n      jump\t// out\n        /* \"#utility.yul\":523:640   */\n    tag_35:\n        /* \"#utility.yul\":632:633   */\n      0x00\n        /* \"#utility.yul\":629:630   */\n      dup1\n        /* \"#utility.yul\":622:634   */\n      revert\n        /* \"#utility.yul\":769:891   */\n    tag_37:\n        /* \"#utility.yul\":842:866   */\n      tag_50\n        /* \"#utility.yul\":860:865   */\n      dup2\n        /* \"#utility.yul\":842:866   */\n      tag_32\n      jump\t// in\n    tag_50:\n        /* \"#utility.yul\":835:840   */\n      dup2\n        /* \"#utility.yul\":832:867   */\n      eq\n        /* \"#utility.yul\":822:885   */\n      tag_51\n      jumpi\n        /* \"#utility.yul\":881:882   */\n      0x00\n        /* \"#utility.yul\":878:879   */\n      dup1\n        /* \"#utility.yul\":871:883   */\n      revert\n        /* \"#utility.yul\":822:885   */\n    tag_51:\n        /* \"#utility.yul\":769:891   */\n      pop\n      jump\t// out\n        /* \"#utility.yul\":897:1036   */\n    tag_38:\n        /* \"#utility.yul\":943:948   */\n      0x00\n        /* \"#utility.yul\":981:987   */\n      dup2\n        /* \"#utility.yul\":968:988   */\n      calldataload\n        /* \"#utility.yul\":959:988   */\n      swap1\n      pop\n        /* \"#utility.yul\":997:1030   */\n      tag_53\n        /* \"#utility.yul\":1024:1029   */\n      dup2\n        /* \"#utility.yul\":997:1030   */\n      tag_37\n      jump\t// in\n    tag_53:\n        /* \"#utility.yul\":897:1036   */\n      swap3\n      swap2\n      pop\n      pop\n      jump\t// out\n        /* \"#utility.yul\":1042:1371   */\n    tag_17:\n        /* \"#utility.yul\":1101:1107   */\n      0x00\n        /* \"#utility.yul\":1150:1152   */\n      0x20\n        /* \"#utility.yul\":1138:1147   */\n      dup3\n        /* \"#utility.yul\":1129:1136   */\n      dup5\n        /* \"#utility.yul\":1125:1148   */\n      sub\n        /* \"#utility.yul\":1121:1153   */\n      slt\n        /* \"#utility.yul\":1118:1237   */\n      iszero\n      tag_55\n      jumpi\n        /* \"#utility.yul\":1156:1235   */\n      tag_56\n      tag_35\n      jump\t// in\n    tag_56:\n        /* \"#utility.yul\":1118:1237   */\n    tag_55:\n        /* \"#utility.yul\":1276:1277   */\n      0x00\n        /* \"#utility.yul\":1301:1354   */\n      tag_57\n        /* \"#utility.yul\":1346:1353   */\n      dup5\n        /* \"#utility.yul\":1337:1343   */\n      dup3\n        /* \"#utility.yul\":1326:1335   */\n      dup6\n        /* \"#utility.yul\":1322:1344   */\n      add\n        /* \"#utility.yul\":1301:1354   */\n      tag_38\n      jump\t// in\n    tag_57:\n        /* \"#utility.yul\":1291:1354   */\n      swap2\n      pop\n        /* \"#utility.yul\":1247:1364   */\n      pop\n        /* \"#utility.yul\":1042:1371   */\n      swap3\n      swap2\n      pop\n      pop\n      jump\t// out\n        /* \"#utility.yul\":1377:1557   */\n    tag_39:\n        /* \"#utility.yul\":1425:1502   */\n      0x4e487b7100000000000000000000000000000000000000000000000000000000\n        /* \"#utility.yul\":1422:1423   */\n      0x00\n        /* \"#utility.yul\":1415:1503   */\n      mstore\n        /* \"#utility.yul\":1522:1526   */\n      0x11\n        /* \"#utility.yul\":1519:1520   */\n      0x04\n        /* \"#utility.yul\":1512:1527   */\n      mstore\n        /* \"#utility.yul\":1546:1550   */\n      0x24\n        /* \"#utility.yul\":1543:1544   */\n      0x00\n        /* \"#utility.yul\":1536:1551   */\n      revert\n        /* \"#utility.yul\":1563:1754   */\n    tag_30:\n        /* \"#utility.yul\":1603:1606   */\n      0x00\n        /* \"#utility.yul\":1622:1642   */\n      tag_60\n        /* \"#utility.yul\":1640:1641   */\n      dup3\n        /* \"#utility.yul\":1622:1642   */\n      tag_32\n      jump\t// in\n    tag_60:\n        /* \"#utility.yul\":1617:1642   */\n      swap2\n      pop\n        /* \"#utility.yul\":1656:1676   */\n      tag_61\n        /* \"#utility.yul\":1674:1675   */\n      dup4\n        /* \"#utility.yul\":1656:1676   */\n      tag_32\n      jump\t// in\n    tag_61:\n        /* \"#utility.yul\":1651:1676   */\n      swap3\n      pop\n        /* \"#utility.yul\":1699:1700   */\n      dup3\n        /* \"#utility.yul\":1696:1697   */\n      dup3\n        /* \"#utility.yul\":1692:1701   */\n      add\n        /* \"#utility.yul\":1685:1701   */\n      swap1\n      pop\n        /* \"#utility.yul\":1720:1723   */\n      dup1\n        /* \"#utility.yul\":1717:1718   */\n      dup3\n        /* \"#utility.yul\":1714:1724   */\n      gt\n        /* \"#utility.yul\":1711:1747   */\n      iszero\n      tag_62\n      jumpi\n        /* \"#utility.yul\":1727:1745   */\n      tag_63\n      tag_39\n      jump\t// in\n    tag_63:\n        /* \"#utility.yul\":1711:1747   */\n    tag_62:\n        /* \"#utility.yul\":1563:1754   */\n      swap3\n      swap2\n      pop\n      pop\n      jump\t// out\n\n    auxdata: 0xa264697066735822122072e060689e2fe1400b335c8bb68dee7b71bcf1cb765bbd54176818c53a537b5064736f6c634300081a0033\n}\n",
				"bytecode": {
					"linkReferences": {},
					"object": "6080604052348015600e575f80fd5b506102428061001c5f395ff3fe608060405234801561000f575f80fd5b5060043610610055575f3560e01c8063209652551461005957806354fee64414610077578063552410771461009557806398b10823146100b1578063f3593cd0146100cf575b5f80fd5b6100616100ed565b60405161006e919061013a565b60405180910390f35b61007f6100f5565b60405161008c919061013a565b60405180910390f35b6100af60048036038101906100aa9190610181565b6100fd565b005b6100b9610106565b6040516100c6919061013a565b60405180910390f35b6100d761011a565b6040516100e4919061013a565b60405180910390f35b5f8054905090565b5f6006905090565b805f8190555050565b5f60035f5461011591906101d9565b905090565b5f6015905090565b5f819050919050565b61013481610122565b82525050565b5f60208201905061014d5f83018461012b565b92915050565b5f80fd5b61016081610122565b811461016a575f80fd5b50565b5f8135905061017b81610157565b92915050565b5f6020828403121561019657610195610153565b5b5f6101a38482850161016d565b91505092915050565b7f4e487b71000000000000000000000000000000000000000000000000000000005f52601160045260245ffd5b5f6101e382610122565b91506101ee83610122565b9250828201905080821115610206576102056101ac565b5b9291505056fea264697066735822122072e060689e2fe1400b335c8bb68dee7b71bcf1cb765bbd54176818c53a537b5064736f6c634300081a0033",
					"opcodes": "PUSH1 0x80 PUSH1 0x40 MSTORE CALLVALUE DUP1 ISZERO PUSH1 0xE JUMPI PUSH0 DUP1 REVERT JUMPDEST POP PUSH2 0x242 DUP1 PUSH2 0x1C PUSH0 CODECOPY PUSH0 RETURN INVALID PUSH1 0x80 PUSH1 0x40 MSTORE CALLVALUE DUP1 ISZERO PUSH2 0xF JUMPI PUSH0 DUP1 REVERT JUMPDEST POP PUSH1 0x4 CALLDATASIZE LT PUSH2 0x55 JUMPI PUSH0 CALLDATALOAD PUSH1 0xE0 SHR DUP1 PUSH4 0x20965255 EQ PUSH2 0x59 JUMPI DUP1 PUSH4 0x54FEE644 EQ PUSH2 0x77 JUMPI DUP1 PUSH4 0x55241077 EQ PUSH2 0x95 JUMPI DUP1 PUSH4 0x98B10823 EQ PUSH2 0xB1 JUMPI DUP1 PUSH4 0xF3593CD0 EQ PUSH2 0xCF JUMPI JUMPDEST PUSH0 DUP1 REVERT JUMPDEST PUSH2 0x61 PUSH2 0xED JUMP JUMPDEST PUSH1 0x40 MLOAD PUSH2 0x6E SWAP2 SWAP1 PUSH2 0x13A JUMP JUMPDEST PUSH1 0x40 MLOAD DUP1 SWAP2 SUB SWAP1 RETURN JUMPDEST PUSH2 0x7F PUSH2 0xF5 JUMP JUMPDEST PUSH1 0x40 MLOAD PUSH2 0x8C SWAP2 SWAP1 PUSH2 0x13A JUMP JUMPDEST PUSH1 0x40 MLOAD DUP1 SWAP2 SUB SWAP1 RETURN JUMPDEST PUSH2 0xAF PUSH1 0x4 DUP1 CALLDATASIZE SUB DUP2 ADD SWAP1 PUSH2 0xAA SWAP2 SWAP1 PUSH2 0x181 JUMP JUMPDEST PUSH2 0xFD JUMP JUMPDEST STOP JUMPDEST PUSH2 0xB9 PUSH2 0x106 JUMP JUMPDEST PUSH1 0x40 MLOAD PUSH2 0xC6 SWAP2 SWAP1 PUSH2 0x13A JUMP JUMPDEST PUSH1 0x40 MLOAD DUP1 SWAP2 SUB SWAP1 RETURN JUMPDEST PUSH2 0xD7 PUSH2 0x11A JUMP JUMPDEST PUSH1 0x40 MLOAD PUSH2 0xE4 SWAP2 SWAP1 PUSH2 0x13A JUMP JUMPDEST PUSH1 0x40 MLOAD DUP1 SWAP2 SUB SWAP1 RETURN JUMPDEST PUSH0 DUP1 SLOAD SWAP1 POP SWAP1 JUMP JUMPDEST PUSH0 PUSH1 0x6 SWAP1 POP SWAP1 JUMP JUMPDEST DUP1 PUSH0 DUP2 SWAP1 SSTORE POP POP JUMP JUMPDEST PUSH0 PUSH1 0x3 PUSH0 SLOAD PUSH2 0x115 SWAP2 SWAP1 PUSH2 0x1D9 JUMP JUMPDEST SWAP1 POP SWAP1 JUMP JUMPDEST PUSH0 PUSH1 0x15 SWAP1 POP SWAP1 JUMP JUMPDEST PUSH0 DUP2 SWAP1 POP SWAP2 SWAP1 POP JUMP JUMPDEST PUSH2 0x134 DUP2 PUSH2 0x122 JUMP JUMPDEST DUP3 MSTORE POP POP JUMP JUMPDEST PUSH0 PUSH1 0x20 DUP3 ADD SWAP1 POP PUSH2 0x14D PUSH0 DUP4 ADD DUP5 PUSH2 0x12B JUMP JUMPDEST SWAP3 SWAP2 POP POP JUMP JUMPDEST PUSH0 DUP1 REVERT JUMPDEST PUSH2 0x160 DUP2 PUSH2 0x122 JUMP JUMPDEST DUP2 EQ PUSH2 0x16A JUMPI PUSH0 DUP1 REVERT JUMPDEST POP JUMP JUMPDEST PUSH0 DUP2 CALLDATALOAD SWAP1 POP PUSH2 0x17B DUP2 PUSH2 0x157 JUMP JUMPDEST SWAP3 SWAP2 POP POP JUMP JUMPDEST PUSH0 PUSH1 0x20 DUP3 DUP5 SUB SLT ISZERO PUSH2 0x196 JUMPI PUSH2 0x195 PUSH2 0x153 JUMP JUMPDEST JUMPDEST PUSH0 PUSH2 0x1A3 DUP5 DUP3 DUP6 ADD PUSH2 0x16D JUMP JUMPDEST SWAP2 POP POP SWAP3 SWAP2 POP POP JUMP JUMPDEST PUSH32 0x4E487B7100000000000000000000000000000000000000000000000000000000 PUSH0 MSTORE PUSH1 0x11 PUSH1 0x4 MSTORE PUSH1 0x24 PUSH0 REVERT JUMPDEST PUSH0 PUSH2 0x1E3 DUP3 PUSH2 0x122 JUMP JUMPDEST SWAP2 POP PUSH2 0x1EE DUP4 PUSH2 0x122 JUMP JUMPDEST SWAP3 POP DUP3 DUP3 ADD SWAP1 POP DUP1 DUP3 GT ISZERO PUSH2 0x206 JUMPI PUSH2 0x205 PUSH2 0x1AC JUMP JUMPDEST JUMPDEST SWAP3 SWAP2 POP POP JUMP INVALID LOG2 PUSH5 0x6970667358 0x22 SLT KECCAK256 PUSH19 0xE060689E2FE1400B335C8BB68DEE7B71BCF1CB PUSH23 0x5BBD54176818C53A537B5064736F6C634300081A003300 "
				},
				"gasEstimates": {
					"creation": {
						"codeDepositCost": "115600",
						"executionCost": "163",
						"totalCost": "115763"
					},
					"external": {
						"getNewValue()": "332",
						"getValue()": "2410",
						"multiply()": "398",
						"setValue(uint256)": "22536",
						"valuePlusThree()": "infinite"
					}
				},
				"methodIdentifiers": {
					"getNewValue()": "54fee644",
					"getValue()": "20965255",
					"multiply()": "f3593cd0",
					"setValue(uint256)": "55241077",
					"valuePlusThree()": "98b10823"
				}
			},
			"storageLayout": {
				"storage": [
					{
						"astId": 3,
						"contract": "contracts/Exercise2.sol:MyContract",
						"label": "value",
						"offset": 0,
						"slot": "0",
						"type": "t_uint256"
					}
				],
				"types": {
					"t_uint256": {
						"encoding": "inplace",
						"label": "uint256",
						"numberOfBytes": "32"
					}
				}
			},
			"userdoc": {
				"kind": "user",
				"methods": {},
				"version": 1
			}
		}
	}
}